:100000000C9434000C9446000C9446000C9446006A
:100010000C9446000C9446000C9446000C94460048
:100020000C9446000C9446000C9446000C94460038
:100030000C9446000C9446000C9448000C94460026
:100040000C9446000C9446000C9446000C94460018
:100050000C9446000C9446000C9446000C94460008
:100060000C9446000C94460011241FBECFEFD8E03C
:10007000DEBFCDBF21E0A0E0B1E001C01D92A23003
:10008000B207E1F70E947A000C9496000C940000ED
:100090001F920F920FB60F9211248F93809100013F
:1000A0008F5F80930001823028F08091010184608D
:1000B000809301018F910F900FBE0F901F901895A4
:1000C00082E084BD85E085BDEEE6F0E0808182605F
:1000D00080838FEF87BD0895EAE7F0E0808185682F
:1000E0008083ECE7F0E080818064808380818160A0
:1000F000808308950E946C000E9460008AB180672E
:100100008AB9579A5E9A8091010182FD5D9A809129
:10011000010181FD5C9A2FEF84E39CE02150804037
:100120009040E1F700C000005F9AEDCFF894FFCF58
:00000001FF
