:100000000C9434000C9446000C9446000C9446006A
:100010000C9446000C9446000C9446000C94460048
:100020000C9446000C9446000C9446000C94460038
:100030000C9446000C9446000C9448000C94460026
:100040000C9446000C9446000C9446000C94460018
:100050000C9446000C9446000C9446000C94460008
:100060000C9446000C94460011241FBECFEFD8E03C
:10007000DEBFCDBF21E0A0E0B1E001C01D92A53000
:10008000B207E1F70E949B000C94B1000C940000B1
:100090001F920F920FB60F9211244F935F936F939D
:1000A0007F938F9340910001509101016091020173
:1000B000709103014F5F5F4F6F4F7F4F409300017F
:1000C0005093010160930201709303014D33510578
:1000D0006105710560F080910401413551056105AC
:1000E000710510F4816001C08960809304018F91D3
:1000F0007F916F915F914F910F900FBE0F901F9066
:10010000189582E084BD85E085BDEEE6F0E0808153
:10011000826080838FEF87BD0895EAE7F0E08081F9
:1001200085688083ECE7F0E0808180648083808153
:1001300081608083089578940E948D000E948100E0
:100140008AB180678AB9579A5E9A8091040180FFCC
:1001500002C05C9A5F9A8091040183FFF6CF5D9A9A
:06016000F4CFF894FFCF7C
:00000001FF
