:100000000C9434000C943E000C943E000C943E0082
:100010000C943E000C943E000C943E000C943E0068
:100020000C943E000C943E000C943E000C943E0058
:100030000C943E000C943E000C943E000C943E0048
:100040000C943E000C943E000C943E000C943E0038
:100050000C943E000C943E000C943E000C943E0028
:100060000C943E000C943E0011241FBECFEFD8E04C
:10007000DEBFCDBF0E9440000C945E000C940000D7
:100080008AB180638AB920E030E040E290E12F5FDE
:100090003F4FB90163707727672B19F48BB1842721
:1000A0008BB98BB189278BB95FE36DE083E0515049
:1000B00060408040E1F700C00000E9CFF894FFCF36
:00000001FF
